S1234000CC0448BF00ABBD0030F401F401F401F40100000000000000000000000000000059
S12340200000000000000000000000000000000054686973204669726D7761726500000087
S12340404973205772697474656E20627900000054696D000000000000000000000000006E
S12340604A61636B736F6E00000000000000000031393630000000000000000000000000A3
S123408000000000000000000000000000000000000000000000000000000000000000001C
S12340a00000000000000000000000000000000000000000000000000000000000000000FC
S12340c00000000000000000000000000000000000000000000000000000000000000000DC
S12340e00000000000000000000000000000000000000000000000000000000000000000BC
S123410000000000000000000000000000000000000000000000000000000000000000009B
S123412000000000000000000000000000000000000000000000000000000000000000007B
S123414000000000000000000000000000000000000000000000000000000000000000005B
S123416000000000000000000000000000000000000000000000000000000000000000003B
S123418000000000000000000000000000000000000000000000000000000000000000001B
S12341a00000000000000000000000000000000000000000000000000000000000000000FB
S12341c00000000000000000000000000000000000000000000000000000000000000000DB
S12341e00000000000000000000000000000000000000000000000000000000000000000BB
S123420000000000000000000000000000000000000000000000000000000000000000009A
S123422000000000000000000000000000000000000000000000000000000000000000007A
S123424000000000000000000000000000000000000000000000000000000000000000005A
S123426000000000000000000000000000000000000000000000000000000000000000003A
S9030000FC
